:100000000C942A000C9447000C9447000C94470071
:100010000C9447000C9447000C94BF050C946D059C
:100020000C9496050C9444050C9447000C944700DE
:100030000C9447000C9447000C9447000C94470024
:100040000C9447000C9447000C9447000C94470014
:100050000C94470011241FBECFE5D8E0DEBFCDBF12
:1000600011E0A0E6B0E0E4ECF6E202C005900D92EB
:10007000A438B107D9F711E0A4E8B1E001C01D929E
:10008000AF38B107E1F70E94D4040C9460130C94CC
:100090000000806487B986B18068682B66B90895CE
:1000A000369A86B186FDFDCF84B190E045B1342FFC
:1000B00020E0822B932B0895413009F03EC081301F
:1000C000A9F0813030F08230F1F0833009F075C052
:1000D00027C02AB381E090E0AC0102C0440F551F55
:1000E0006A95E2F7BA01622B6ABB089527B381E0F3
:1000F00090E0AC0102C0440F551F6A95E2F7BA01C7
:10010000622B67BB089524B381E090E0AC0102C08C
:10011000440F551F6A95E2F7BA01622B64BB08953C
:1001200021B381E090E0AC0102C0440F551F6A95F5
:10013000E2F7BA01622B61BB08958130A9F08130EA
:1001400028F08230F9F08330C1F52AC02AB381E06B
:1001500090E0AC0102C0440F551F6A95E2F7BA0166
:10016000609562236ABB089527B381E090E0AC01FB
:1001700002C0440F551F6A95E2F7BA0160956223E9
:1001800067BB089524B381E090E0AC0102C0440F46
:10019000551F6A95E2F7BA016095622364BB089522
:1001A00021B381E090E0AC0102C0440F551F6A9575
:1001B000E2F7BA016095622361BB0895813049F08E
:1001C000813028F0823039F0833041F406C06ABBB8
:1001D000089567BB089564BB089561BB08954130DD
:1001E00009F03EC08130A9F0813030F08230F1F06A
:1001F000833009F075C027C02BB381E090E0AC01DB
:1002000002C0440F551F6A95E2F7BA01622B6BBB1F
:10021000089528B381E090E0AC0102C0440F551F5F
:100220006A95E2F7BA01622B68BB089525B381E0B5
:1002300090E0AC0102C0440F551F6A95E2F7BA0185
:10024000622B65BB089522B381E090E0AC0102C04F
:10025000440F551F6A95E2F7BA01622B62BB0895FD
:100260008130A9F0813028F08230F9F08330C1F577
:100270002AC02BB381E090E0AC0102C0440F551FAF
:100280006A95E2F7BA01609562236BBB089528B3C3
:1002900081E090E0AC0102C0440F551F6A95E2F77F
:1002A000BA016095622368BB089525B381E090E0B0
:1002B000AC0102C0440F551F6A95E2F7BA01609580
:1002C000622365BB089522B381E090E0AC0102C0D7
:1002D000440F551F6A95E2F7BA016095622362BB2D
:1002E0000895813049F0813028F0823039F0833030
:1002F00041F406C06BBB089568BB089565BB0895C3
:1003000062BB0895813049F0813028F0823039F0A5
:10031000833049F406C089B3089586B3089583B342
:10032000089580B3089580E00895813089F0813088
:1003300028F08230B9F0833049F51EC029B330E08F
:10034000C90102C0959587956A95E2F78170089575
:1003500026B330E0C90102C0959587956A95E2F70A
:100360008170089523B330E0C90102C09595879547
:100370006A95E2F78170089520B330E0C90102C0A8
:10038000959587956A95E2F78170089580E00895C4
:100390008130D1F0813030F0823041F1833009F08A
:1003A00048C036C02AB381E090E0AC0102C0440FDF
:1003B000551F6A95E2F7BA01842F809582238ABB84
:1003C0008BB3682B6BBB089527B381E090E0AC0141
:1003D00002C0440F551F6A95E2F7BA01842F809539
:1003E000822387BB88B3682B68BB089524B381E060
:1003F00090E0AC0102C0440F551F6A95E2F7BA01C4
:10040000842F8095822384BB85B3682B65BB0895B8
:1004100021B381E090E0AC0102C0440F551F6A9502
:10042000E2F7BA01842F8095822381BB82B3682BC7
:1004300062BB08958130A1F0813028F08230E9F06C
:100440008330A1F527C02BB381E090E0AC0102C05E
:10045000440F551F6A95E2F7BA0162276BBB0895F6
:1004600028B381E090E0AC0102C0440F551F6A95AB
:10047000E2F7BA01622768BB089525B381E090E0F6
:10048000AC0102C0440F551F6A95E2F7BA0162271A
:1004900065BB089522B381E090E0AC0102C0440F37
:1004A000551F6A95E2F7BA01622762BB089583E09F
:1004B00064E041E00E945C0080E060E040E00E9477
:1004C0005C000E944A0380E066E00E9449000E94AE
:1004D000D90480E197E20E94F80408950E94C304C1
:1004E000809386018E3128F4109285011092840148
:1004F00029C0982F9E519F3138F484EC99E0909355
:100500008501809384011EC0982F9C539F3138F43D
:1005100088E893E1909385018093840113C0982F1C
:100520009A559F3138F48CE49DE190938501809336
:10053000840108C0883798F080E197E290938501A4
:1005400080938401809186018E3148F481E061E0DE
:100550000E94070480E690E00E94F80308C081E052
:1005600061E00E9407048CE690E00E94F80382E0BC
:1005700061E00E94070487E790E00E94F803209161
:10058000860130E040E050E060E070E080E090E024
:100590000E942F048FED0E949F0383E40E949F031B
:1005A00080E20E949F0380918401909185010E94C6
:1005B000FB04089582E065E041E00E94EF008FE9CE
:1005C0009FE00197F1F700C0000082E065E040E0A5
:1005D0000E94EF008FE99FE00197F1F700C0000053
:1005E0000895CF93C82F482F42954F70417082E0F5
:1005F00060E00E94EF004C2F429546954770417095
:1006000082E061E00E94EF004C2F429546954695AE
:100610004370417082E062E00E94EF004C2F441F63
:100620004427441F82E063E00E94EF0082E064E020
:1006300040E00E94EF000E94DA024C2F417082E0FD
:1006400060E00E94EF004C2F4695417082E061E02F
:100650000E94EF004C2F46954695417082E062E083
:100660000E94EF00C695C695C6954C2F417082E05A
:1006700063E00E94EF0082E064E040E00E94EF004F
:100680000E94DA028FEC97E00197F1F700C00000BA
:10069000CF9108958FEF90E7A2E081509040A04065
:1006A000E1F700C0000082E060E041E00E945C00F1
:1006B00082E061E041E00E945C0082E062E041E0B3
:1006C0000E945C0082E063E041E00E945C0082E006
:1006D00064E041E00E945C0082E065E041E00E944D
:1006E0005C0082E00E94F102AFE0B7E21197F1F7FF
:1006F00000C0000088E20E94F1028FEC97E00197B1
:10070000F1F700C000008CE00E94F102AFECB7E00E
:100710001197F1F700C0000081E00E94F1028FE123
:100720009EE40197F1F700C0000086E00E94F1020C
:10073000AFECB7E01197F1F700C000000895CF9338
:10074000C82F482F42954F70417082E060E00E94B0
:10075000EF004C2F429546954770417082E061E072
:100760000E94EF004C2F429546954695437041708C
:1007700082E062E00E94EF004C2F441F4427441F98
:1007800082E063E00E94EF0082E064E041E00E94CA
:10079000EF000E94DA024C2F417082E060E00E947C
:1007A000EF004C2F4695417082E061E00E94EF001F
:1007B0004C2F46954695417082E062E00E94EF0022
:1007C000C695C695C6954C2F417082E063E00E94A5
:1007D000EF0082E064E041E00E94EF000E94DA0254
:1007E0008FEC97E00197F1F700C00000CF910895DA
:1007F000CF93DF93EC018881882331F021960E940A
:100800009F0389918823D9F7DF91CF910895982F7D
:100810009150923060F4662361F0613160F4813070
:1008200019F4862F815808C0862F815405C080E8AE
:1008300003C080E801C080E80E94F1028FEC97E0DD
:100840000197F1F700C00000089581E00E94F102D5
:100850008FE19EE40197F1F700C0000008952F9208
:100860003F924F925F926F927F928F929F92AF9240
:10087000BF92CF92DF92EF92FF920F931F93CF938D
:10088000DF93CDB7DEB72D970FB6F894DEBF0FBE5E
:10089000CDBF222E332E442E552E662E772E882E37
:1008A000992E822F832B842B852B862B872B8829AF
:1008B000892B21F480E30E949F034CC01B8681E0BA
:1008C00090E08C0F9D1FEB858E0F911D9D878C876F
:1008D000222D332D442D552D662D772D882D992DC4
:1008E0000F2EFAE0AF2EF02DBB24CC24DD24EE2415
:1008F000FF2400E010E00E942D0C205DEC85FD85BA
:100900002083222D332D442D552D662D772D882DB6
:10091000992D0E94E805222E332E442E552E662E48
:10092000772E882E992EFB85FF5FFB87232B242BA8
:10093000252B262B272B282B292B09F0C0CFFF2373
:1009400049F09F2EFE01E90DF11D80810E949F0359
:100950009A94C1F72D960FB6F894DEBF0FBECDBFA7
:10096000DF91CF911F910F91FF90EF90DF90CF908B
:10097000BF90AF909F908F907F906F905F904F90BF
:100980003F902F9008950E945000BC0180E090E0BD
:100990000E94F71123E23BED49EF5EE30E945D12F6
:1009A0000E94CB11862F08950E9457020E946E026A
:1009B000FDCF8FB581608FBD8FB582608FBD8EB545
:1009C000877F8EBD8EB580618EBD8FB58F7B8FBDCD
:1009D0008FB58F778FBD8FB58F7E8FBD8FB58062BE
:1009E0008FBD8EB5887F8EBD8EB582608EBD089519
:1009F0009BBD8ABD089599BD88BD089597BD86BDEC
:100A00000895813021F48EB580648EBD08958823C9
:100A100019F48EB58F7B8EBD089589B7806289BF2A
:100A2000089589B78F7D89BF089589B7846089BF8C
:100A3000089589B78B7F89BF089589B7806189BF81
:100A4000089589B78F7E89BF089589B7886089BF67
:100A5000089589B7877F89BF089586B597B50895AA
:100A60009093880180938701089590938A018093E1
:100A70008901089590938C0180938B010895909340
:100A80008E0180938D0108951F920F920FB60F92E1
:100A900011242F933F934F935F936F937F938F9383
:100AA0009F93AF93BF93EF93FF93E0918701F091F2
:100AB0008801309709F00995FF91EF91BF91AF91AF
:100AC0009F918F917F916F915F914F913F912F9166
:100AD0000F900FBE0F901F9018951F920F920FB698
:100AE0000F9211242F933F934F935F936F937F93B4
:100AF0008F939F93AF93BF93EF93FF93E0918901FF
:100B0000F0918A01309709F00995FF91EF91BF911B
:100B1000AF919F918F917F916F915F914F913F9195
:100B20002F910F900FBE0F901F9018951F920F924C
:100B30000FB60F9211242F933F934F935F936F93B0
:100B40007F938F939F93AF93BF93EF93FF93E09126
:100B50008B01F0918C01309709F00995FF91EF918D
:100B6000BF91AF919F918F917F916F915F914F91C5
:100B70003F912F910F900FBE0F901F9018951F92CD
:100B80000F920FB60F9211242F933F934F935F93C1
:100B90006F937F938F939F93AF93BF93EF93FF9345
:100BA000E0918D01F0918E01309709F00995FF9148
:100BB000EF91BF91AF919F918F917F916F915F91D5
:100BC0004F913F912F910F900FBE0F901F9018954E
:100BD000A4E3B0E0EEEEF5E00C942A13298B3A8BF7
:100BE0004B8B5C8B6D8B7E8B8F8B988FA986BA8697
:100BF000CB86DC86ED86FE860F87188B89849A84E7
:100C0000AB84BC848D859E85AF85B88909891A8996
:100C10002B893C890DA31EA32FA338A7CD88DE887E
:100C2000EF88F88C0097A105B10509F0B5C3C81489
:100C3000D904EA04FB0408F04DC110E0811610E06D
:100C4000910611E0A10610E0B10658F42FEF8216CC
:100C50009104A104B10409F090F480E090E0DC017B
:100C600017C030E0831630E0930630E0A30631E091
:100C7000B30650F480E190E0A0E0B0E009C088E065
:100C800090E0A0E0B0E004C088E190E0A0E0B0E037
:100C9000B501A401082E04C0769567955795479530
:100CA0000A94D2F7FA01EC57FF4F208140E250E05E
:100CB00060E070E0481B590B6A0B7B0B421B51092B
:100CC000610971094115510561057105A1F1042EF4
:100CD00004C0880C991CAA1CBB1C0A94D2F797016B
:100CE0008601042E04C0000F111F221F331F0A9417
:100CF000D2F780E290E0841B950BCDA0DEA0EFA0A0
:100D0000F8A404C0F694E794D794C7948A95D2F7D0
:100D1000C02AD12AE22AF32A0DA11EA12FA138A5AB
:100D200004C0000F111F221F331F4A95D2F70DA3D5
:100D30001EA32FA338A725016624772495018401DB
:100D40002070307009A31AA32BA33CA3C701B601DE
:100D5000A30192010E9407132D8F3E8F4F8F58A33E
:100D6000698F7A8F8B8F9C8FC701B601A301920187
:100D70000E940713CA01B90129A13AA14BA15CA1A4
:100D80000E94E812AB01BC01098D1A8D2B8D3C8DA0
:100D90007801DD24CC240DA11EA12FA138A5C90105
:100DA000AA27BB27C82AD92AEA2AFB2A0D8D1E8D1D
:100DB0002F8D38A1C416D506E606F70638F5015082
:100DC000104020403040098F1A8F2B8F3C8FC80C69
:100DD000D91CEA1CFB1CC814D904EA04FB04D0F09B
:100DE000C416D506E606F706A8F40D8D1E8D2F8DC8
:100DF00038A10250104020403040098F1A8F2B8FAD
:100E00003C8FC80CD91CEA1CFB1C04C0098F1A8F2C
:100E10002B8F3C8FC41AD50AE60AF70AC701B60120
:100E2000A30192010E9407132D8F3E8F4F8F58A36D
:100E300069A77AA78BA79CA7C701B601A301920156
:100E40000E940713CA01B90129A13AA14BA15CA1D3
:100E50000E94E8126B017C0149A55AA56BA57CA5EF
:100E60009A01112700274DA15EA16FA178A560709E
:100E70007070042B152B262B372B8D8D9E8DAF8DEF
:100E8000B8A10C151D052E053F05C0F40197A10959
:100E9000B109080D191D2A1D3B1D081519052A0544
:100EA0003B0560F00C151D052E053F0538F48D8DB2
:100EB0009E8DAF8DB8A10297A109B109098D1A8D38
:100EC0002B8D3C8D7801DD24CC24C82AD92AEA2A2E
:100ED000FB2AA5C481149104A104B10451F461E07A
:100EE00070E080E090E0A50194010E9407134901A1
:100EF0005A0110E0811610E0910611E0A10610E001
:100F0000B10658F42FEF82169104A104B10409F040
:100F100090F480E090E0DC0117C030E0831630E010
:100F2000930630E0A30631E0B30650F480E190E090
:100F3000A0E0B0E009C088E090E0A0E0B0E004C02C
:100F400088E190E0A0E0B0E0B501A401082E04C063
:100F500076956795579547950A94D2F7FA01EC571D
:100F6000FF4F2081AC01BD01420F511D611D711D5C
:100F700080E290E0A0E0B0E0841B950BA60BB70BDD
:100F800051F4C818D908EA08FB08F1E04F2E512C9B
:100F9000612C712C24C1082E04C0880C991CAA1C39
:100FA000BB1C0A94D2F797018601042E04C0369523
:100FB0002795179507950A94D2F709A31AA32BA38F
:100FC0003CA397018601082E04C0000F111F221FA9
:100FD000331F0A94D2F70D8F1E8F2F8F38A30DA1C8
:100FE0001EA12FA138A504C0369527951795079502
:100FF0004A95D2F7B901A8010D8D1E8D2F8D38A10C
:10100000042B152B262B372B0D8F1E8F2F8F38A3DC
:101010000DA11EA12FA138A504C0000F111F221F72
:10102000331F8A95D2F70DA31EA32FA338A725013E
:1010300066247724950184012070307009A71AA7CF
:101040002BA73CA769A17AA18BA19CA1A301920126
:101050000E940713298F3A8F4B8F5C8F6B017C01A5
:1010600069A17AA18BA19CA1A30192010E940713FF
:10107000CA01B90129A53AA54BA55CA50E94E812B1
:10108000AB01BC017601DD24CC240D8D1E8D2F8D8E
:1010900038A1C901AA27BB27C82AD92AEA2AFB2ACC
:1010A000098D1A8D2B8D3C8DC416D506E606F706E4
:1010B00038F5015010402040304009A31AA32BA35B
:1010C0003CA3C80CD91CEA1CFB1CC814D904EA04B4
:1010D000FB04D0F0C416D506E606F706A8F4098D81
:1010E0001A8D2B8D3C8D025010402040304009A3BA
:1010F0001AA32BA33CA3C80CD91CEA1CFB1C04C0DC
:1011000009A31AA32BA33CA3C41AD50AE60AF70A1B
:10111000C701B601A30192010E940713298F3A8FDC
:101120004B8F5C8F6DA77EA78FA798ABC701B601C9
:10113000A30192010E940713CA01B90129A53AA58A
:101140004BA55CA50E94E8128B019C014DA55EA5F4
:101150006FA578A9DA01992788274D8D5E8D6F8D4F
:1011600078A160707070842B952BA62BB72B498DBE
:101170005A8D6B8D7C8D80179107A207B307F0F411
:101180004150504060407040880D991DAA1DBB1D04
:1011900088159905AA05BB0588F080179107A20755
:1011A000B30760F4498D5A8D6B8D7C8D4250504051
:1011B00060407040880D991DAA1DBB1D6C017D010A
:1011C000C01AD10AE20AF30A09A11AA12BA13CA173
:1011D000380155244424442A552A662A772A850151
:1011E000222733270D8F1E8F2F8F38A3950184015F
:1011F0002070307009A71AA72BA73CA7C701B6011A
:101200002D8D3E8D4F8D58A10E940713298F3A8F47
:101210004B8F5C8F69A37AA38BA39CA3C701B601F4
:101220002D8D3E8D4F8D58A10E940713CA01B90123
:1012300029A53AA54BA55CA50E94E812AB01BC010B
:1012400009A11AA12BA13CA17801DD24CC240DA178
:101250001EA12FA138A5C901AA27BB27C82AD92AB0
:10126000EA2AFB2A098D1A8D2B8D3C8DC416D506D2
:10127000E606F70638F5015010402040304009A33B
:101280001AA32BA33CA3C80CD91CEA1CFB1CC81432
:10129000D904EA04FB04D0F0C416D506E606F70626
:1012A000A8F4098D1A8D2B8D3C8D025010402040E2
:1012B000304009A31AA32BA33CA3C80CD91CEA1CD9
:1012C000FB1C04C009A31AA32BA33CA3C41AD50A70
:1012D000E60AF70AC701B6012D8D3E8D4F8D58A144
:1012E0000E940713298F3A8F4B8F5C8F6DA77EA7C3
:1012F0008FA798ABC701B6012D8D3E8D4F8D58A19C
:101300000E940713CA01B90129A53AA54BA55CA5FE
:101310000E94E8128B019C014DA55EA56FA578A9DE
:10132000DA01992788274DA15EA16FA178A5607089
:101330007070842B952BA62BB72B498D5A8D6B8DF6
:101340007C8D80179107A207B307D0F4415050401D
:1013500060407040880D991DAA1DBB1D8815990518
:10136000AA05BB0568F080179107A207B30740F4F0
:10137000498D5A8D6B8D7C8D42505040604070403D
:1013800009A11AA12BA13CA17801DD24CC24C42AF7
:10139000D52AE62AF72A46C2C816D906EA06FB0667
:1013A00008F42DC2803010E0910711E0A10710E091
:1013B000B10750F48F3F9105A105B10509F088F4FC
:1013C00000E010E0980116C0803020E0920720E095
:1013D000A20721E0B20750F400E110E020E030E085
:1013E00009C008E010E020E030E004C008E110E0AF
:1013F00020E030E0AC01BD01002E04C07695679579
:10140000579547950A94D2F7FA01EC57FF4F408160
:10141000040F111D211D311D40E250E060E070E01D
:10142000401B510B620B730BA1F48C159D05AE058F
:10143000BF0508F4EBC10DA11EA12FA138A54424BE
:1014400055243201081519052A053B0508F0E1C1AC
:10145000D9C1342E2C013D0104C0440C551C661C1E
:10146000771C4A95D2F7D501C401002E04C0B69569
:10147000A795979587950A94D2F7482A592A6A2AF8
:101480007B2AA5019401032C04C0220F331F441FA3
:10149000551F0A94D2F729A73AA74BA75CA7B70113
:1014A000A601002E04C076956795579547950A9436
:1014B000D2F749A35AA36BA37CA3C701B601032C9F
:1014C00004C0660F771F881F991F0A94D2F76D8F8B
:1014D0007E8F8F8F98A38DA19EA1AFA1B8A504C0C8
:1014E000B695A795979587950A95D2F74D8D5E8D00
:1014F0006F8D78A1482B592B6A2B7B2B4D8F5E8FDC
:101500006F8F78A34301AA24BB249301820120702A
:1015100030700DA71EA72FA738AB69A17AA18BA1A8
:101520009CA1A50194010E940713298F3A8F4B8F2C
:101530005C8F6B017C0169A17AA18BA19CA1A501A3
:1015400094010E940713CA01B9012DA53EA54FA51C
:1015500058A90E94E812DC01CB017601DD24CC24DD
:101560000D8D1E8D2F8D38A1A90166277727C42ADE
:10157000D52AE62AF72A098D1A8D2B8D3C8DC8169F
:10158000D906EA06FB0638F50150104020403040ED
:1015900009A31AA32BA33CA3C40CD51CE61CF71C5F
:1015A000C414D504E604F704D0F0C816D906EA0638
:1015B000FB06A8F4098D1A8D2B8D3C8D025010402E
:1015C0002040304009A31AA32BA33CA3C40CD51C74
:1015D000E61CF71C04C009A31AA32BA33CA3C81A3A
:1015E000D90AEA0AFB0AC701B601A50194010E94C3
:1015F0000713298F3A8F4B8F5C8F69AB7AAB8BAB1C
:101600009CABC701B601A50194010E940713CA0152
:10161000B9012DA53EA54FA558A90E94E8124B017E
:101620005C0149A95AA96BA97CA99A011127002735
:101630008D8D9E8DAF8DB8A1A070B070082B192B29
:101640002A2B3B2B898D9A8DAB8DBC8D08151905E6
:101650002A053B05E0F40197A109B109040D151D08
:10166000261D371D041515052605370580F00815BC
:1016700019052A053B0558F4898D9A8DAB8DBC8DD3
:101680000297A109B109040D151D261D371DB901C9
:10169000A801481959096A097B094D8F5E8F6F8F20
:1016A00078A309A11AA12BA13CA17801DD24CC24A7
:1016B000C82AD92AEA2AFB2AFFEF8F2EFFEF9F2E96
:1016C000A12CB12C8C209D20AE20BF208701222789
:1016D0003327098F1A8F2B8F3C8F49A45AA46BA4F0
:1016E0007CA42FEF3FEF40E050E0422253226422DF
:1016F000752229A53AA54BA55CA58A012227332787
:1017000009A31AA32BA33CA3C501B401A301920111
:101710000E94E81269A77AA78BA79CA7C501B4010C
:1017200029A13AA14BA15CA10E94E8124B015C01E6
:10173000698D7A8D8B8D9C8DA30192010E94E81298
:101740002B013C01698D7A8D8B8D9C8D29A13AA14D
:101750004BA15CA10E94E812AB01BC01840C951C5A
:10176000A61CB71C09A51AA52BA53CA5C901AA272B
:10177000BB27880E991EAA1EBB1E84149504A604BE
:10178000B70420F4405050406F4F7F4FC501AA2747
:10179000BB27840F951FA61FB71F0D8D1E8D2F8D84
:1017A00038A1081719072A073B0718F18017910776
:1017B000A207B307A1F554019924882489A59AA505
:1017C000ABA5BCA5A070B070880E991EAA1EBB1E4A
:1017D0004DA15EA16FA178A5032C04C0440F551F35
:1017E000661F771F0A94D2F7481559056A057B05CD
:1017F000B0F40894C108D108E108F10810C04424ED
:1018000055243201CC24DD2476010CC04424552417
:10181000320181E0C82ED12CE12CF12C03C04424EC
:1018200055243201FE01319688E0DF011D928A9530
:10183000E9F7C982DA82EB82FC824D825E826F8296
:1018400078862C2D3A814B815C81642D7E818F813D
:101850009885E496E1E10C944613A4E3B0E0E3E359
:10186000FCE00C942913F82FE92FA986BA86CB86C1
:10187000DC86ED86FE860F87188B89849A84AB847C
:10188000BC848D859E85AF85B889298F3A8F4B8F13
:101890005C8F6B01EF2EFE2E0097A105B10509F0BC
:1018A000A2C2C814D904EA04FB0408F087C000E00F
:1018B000801600E0900601E0A00600E0B00658F4B3
:1018C0001FEF81169104A104B10409F090F480E0A7
:1018D00090E0DC0117C020E0821620E0920620E0B4
:1018E000A20621E0B20650F480E190E0A0E0B0E072
:1018F00009C088E090E0A0E0B0E004C088E190E09A
:10190000A0E0B0E0B501A401082E04C0769567956B
:10191000579547950A94D2F7FA01EC57FF4F20816B
:1019200040E250E060E070E0481B590B6A0B7B0B13
:10193000421B5109610971094D8F5E8F6F8F78A32A
:10194000411551056105710509F485C12D8D022EE2
:1019500004C0880C991CAA1CBB1C0A94D2F7B701BE
:10196000A601022E04C0440F551F661F771F0A945C
:10197000D2F780E290E0AD8DBE8D8A1B9B0BC98CA7
:10198000DA8CEB8CFC8C04C0F694E794D794C79463
:101990008A95D2F7C42AD52AE62AF72A498D5A8D84
:1019A0006B8D7C8D04C0440F551F661F771F2A95D1
:1019B000D2F7498F5A8F6B8F7C8F4DC18114910460
:1019C000A104B10451F461E070E080E090E0A50171
:1019D00094010E94071349015A0100E0801600E0BB
:1019E000900601E0A00600E0B00658F41FEF811653
:1019F0009104A104B10409F090F480E090E0DC01CE
:101A000017C020E0821620E0920620E0A20621E026
:101A1000B20650F480E190E0A0E0B0E009C088E0B8
:101A200090E0A0E0B0E004C088E190E0A0E0B0E089
:101A3000B501A401082E04C0769567955795479582
:101A40000A94D2F7FA01EC57FF4F2081820F911DC3
:101A5000A11DB11D00E210E020E030E0081B190BD1
:101A60002A0B3B0B0D8F1E8F2F8F38A301151105ED
:101A70002105310529F4C818D908EA08FB08EBC08C
:101A80002D8D022E04C0880C991CAA1CBB1C0A9424
:101A9000D2F7B701A601082E04C076956795579531
:101AA00047950A94D2F749A75AA76BA77CA7B70115
:101AB000A601022E04C0440F551F661F771F0A940B
:101AC000D2F7C98CDA8CEB8CFC8C04C0F694E794CA
:101AD000D794C7948A95D2F74C295D296E297F291E
:101AE00049A35AA36BA37CA3E98CFA8C0B8D1C8DA4
:101AF00004C0EE0CFF1C001F111F2A95D2F7E98EBF
:101B0000FA8E0B8F1C8F25016624772495018401A2
:101B1000207030700DA31EA32FA338A769A57AA546
:101B20008BA59CA5A30192010E940713022FC32E2F
:101B3000142FF52E6DA77EA78FA798AB69A57AA560
:101B40008BA59CA5A30192010E940713602F7C2DF9
:101B5000812F9F2D2DA13EA14FA158A50E94E812D3
:101B6000DC01CB010DA51EA52FA538A97801DD2428
:101B7000CC2409A11AA12BA13CA1A9016627772792
:101B8000C42AD52AE62AF72AC816D906EA06FB0689
:101B900090F4C80CD91CEA1CFB1CC814D904EA0434
:101BA000FB0448F0C816D906EA06FB0620F4C80C68
:101BB000D91CEA1CFB1CC81AD90AEA0AFB0AC7018D
:101BC000B601A30192010E940713122F032F342E96
:101BD000252E69A77AA78BA79CA7C701B601A301E9
:101BE00092010E940713612F702F832D922D2DA13A
:101BF0003EA14FA158A50E94E812DC01CB0109A526
:101C00001AA52BA53CA57801DD24CC2449A15AA115
:101C10006BA17CA160707070C42AD52AE62AF72ACD
:101C2000C816D906EA06FB0690F4C80CD91CEA1CB3
:101C3000FB1CC814D904EA04FB0448F0C816D906F2
:101C4000EA06FB0620F4C80CD91CEA1CFB1CC81AC7
:101C5000D90AEA0AFB0A85012227332709A31AA316
:101C60002BA33CA3950184012070307009A71AA70B
:101C70002BA73CA7C701B60129A13AA14BA15CA1A2
:101C80000E940713122F032F442E752E6DA37EA3DF
:101C90008FA398A7C701B60129A13AA14BA15CA1C6
:101CA0000E940713612F702F842D972D29A53AA527
:101CB0004BA55CA50E94E812DC01CB010DA11EA181
:101CC0002FA138A57801DD24CC24098D1A8D2B8D08
:101CD0003C8DA90166277727C42AD52AE62AF72A48
:101CE000C816D906EA06FB0690F4C80CD91CEA1CF3
:101CF000FB1CC814D904EA04FB0448F0C816D90632
:101D0000EA06FB0620F4C80CD91CEA1CFB1CC81A06
:101D1000D90AEA0AFB0AC701B60129A13AA14BA1D7
:101D20005CA10E940713122F032F442E752E6DA362
:101D30007EA38FA398A7C701B60129A13AA14BA101
:101D40005CA10E940713612F702F842D972D29A568
:101D50003AA54BA55CA50E94E812AB01BC01CDA041
:101D6000DEA0EFA0F8A4D60199278827098D1A8D47
:101D70002B8D3C8D20703070802B912BA22BB32BA0
:101D800084179507A607B70790F4880D991DAA1D1B
:101D9000BB1D88159905AA05BB0548F08417950752
:101DA000A607B70720F4880D991DAA1DBB1D841B2B
:101DB000950BA60BB70B8C019D010D8C04C03695BD
:101DC0002795179507950A94D2F709831A832B83D1
:101DD0003C831D821E821F821886202F3A814B81F0
:101DE0005C8160E0D1C2C816D906EA06FB0618F489
:101DF0008F2F9E2FCCC2803000E0900701E0A0071B
:101E000000E0B00750F48F3F9105A105B10509F03E
:101E100088F400E010E0980116C0803010E09107CF
:101E200010E0A10711E0B10750F400E110E020E05C
:101E300030E009C008E010E020E030E004C008E134
:101E400010E020E030E0AC01BD01002E04C076952A
:101E50006795579547950A94D2F7FA01EC57FF4FCB
:101E60004081040F111D211D311D40E250E060E052
:101E700070E0401B510B620B730B09F040C08C15D6
:101E80009D05AE05BF0548F0098D1A8D2B8D3C8D43
:101E9000081519052A053B0520F1498D5A8D6B8DD2
:101EA0007C8D481959096A097B09C81AD90AEA0AB6
:101EB000FB0A81E090E0A0E0B0E0898C9A8CAB8CCA
:101EC000BC8C84169506A606B70618F080E090E054
:101ED000DC01C81AD90AEA0AFB0A498F5A8F6B8FAC
:101EE0007C8F098D1A8D2B8D3C8D09831A832B8352
:101EF0003C83CD82DE82EF82F886298D41C2342E6A
:101F0000AC01BD01032C04C0440F551F661F771F91
:101F10000A94D2F7202ED501C40104C0B695A79526
:101F2000979587950A95D2F7482B592B6A2B7B2BCF
:101F30004D8F5E8F6F8F78A395018401032C04C0B1
:101F4000000F111F221F331F0A94D2F709A71AA7E7
:101F50002BA73CA746015701022C04C0B694A794B6
:101F6000979487940A94D2F78DA29EA2AFA2B8A6A6
:101F700097018601032C04C0000F111F221F331F7D
:101F80000A94D2F7898D9A8DAB8DBC8D022C04C03A
:101F9000B695A795979587950A94D2F7082B192B94
:101FA0002A2B3B2B09A31AA32BA33CA3898C9A8C25
:101FB000AB8CBC8C032C04C0880C991CAA1CBB1CC9
:101FC0000A94D2F7898E9A8EAB8EBC8E4B01AA24CE
:101FD000BB24607070704DA75EA76FA778AB6DA132
:101FE0007EA18FA198A5A50194010E940713290144
:101FF0003A016B017C016DA17EA18FA198A5A5017D
:1020000094010E940713C301B2012DA53EA54FA55F
:1020100058A90E94E812DC01CB017601DD24CC2412
:1020200009A11AA12BA13CA1A90166277727C42ADF
:10203000D52AE62AF72AC816D906EA06FB0678F555
:102040009301820101501040204030400DA31EA397
:102050002FA338A70D8D1E8D2F8D38A1C00ED11E38
:10206000E21EF31EC016D106E206F306E0F0C81623
:10207000D906EA06FB06B8F493018201025010402B
:10208000204030400DA31EA32FA338A70D8D1E8D19
:102090002F8D38A1C00ED11EE21EF31E04C04DA22A
:1020A0005EA26FA278A6C81AD90AEA0AFB0AC7017B
:1020B000B601A50194010E94071329013A0169ABF9
:1020C0007AAB8BAB9CABC701B601A50194010E9412
:1020D0000713C301B2012DA53EA54FA558A90E9423
:1020E000E8128B019C0189A89AA8ABA8BCA8B401EE
:1020F0005527442789A19AA1ABA1BCA1A070B070BB
:10210000482B592B6A2B7B2BD301C2014017510757
:1021100062077307F0F40197A109B109AD8CBE8C79
:10212000CF8CD8A04A0D5B1D6C1D7D1D4A155B052B
:102130006C057D0570F0401751076207730748F47E
:10214000D301C2010297A109B1094A0D5B1D6C1DA3
:102150007D1D6A017B01C01AD10AE20AF30AC9A2F5
:10216000DAA2EBA2FCA2EDA0FEA00FA118A5B70178
:1021700055274427482B592B6A2B7B2BFFEFCF2E5B
:10218000FFEFDF2EE12CF12CC422D522E622F7222C
:102190002B016624772489A49AA4ABA4BCA40FEFD6
:1021A0001FEF20E030E080229122A222B32229A555
:1021B0003AA54BA55CA58A01222733270DA31EA3B0
:1021C0002FA338A7C701B601A50194010E94E81208
:1021D0006DA77EA78FA798ABC701B6012DA13EA121
:1021E0004FA158A50E94E8126B017C01C301B20106
:1021F000A50194010E94E8124B015C01C301B201E8
:102200002DA13EA14FA158A50E94E812AB01BC012F
:10221000C80CD91CEA1CFB1C0DA51EA52FA538A9AE
:10222000C901AA27BB27C80ED91EEA1EFB1EC81467
:10223000D904EA04FB0420F4405050406F4F7F4F14
:10224000C701AA27BB27840F951FA61FB71F7601BA
:10225000DD24CC244DA55EA56FA578A960707070B3
:10226000C40ED51EE61EF71E89A09AA0ABA0BCA086
:1022700088169906AA06BB0670F088159905AA0566
:10228000BB0599F5098D1A8D2B8D3C8D0C151D05FF
:102290002E053F0550F5B701A60189A49AA4ABA469
:1022A000BCA4481959096A097B098C019D018D8CD0
:1022B0009E8CAF8CB8A0081919092A093B0981E046
:1022C00090E0A0E0B0E0C416D506E606F70618F0E8
:1022D00080E090E0DC0158016901A81AB90ACA0A35
:1022E000DB0AD601C5016A017B01898C9A8CAB8C13
:1022F000BC8C8C189D08AE08BF0849A15AA16BA1DF
:102300007CA1481B590B6A0B7B0B81E090E0A0E09D
:10231000B0E0C98CDA8CEB8CFC8CC814D904EA04CC
:10232000FB0418F080E090E0DC01481B590B6A0BBD
:102330007B0B8A019B0104C0000F111F221F331F5A
:102340002A94D2F7032C04C0B694A7949794879448
:102350000A94D2F7082919292A293B2909831A83C3
:102360002B833C836A017B0104C0F694E794D794E5
:10237000C7943A94D2F7CD82DE82EF82F886202F7E
:102380003A814B815C816C2D7E818F819885E496AA
:10239000E2E10C94451370D088F09F5790F0B92F6C
:1023A0009927B751A0F0D1F0660F771F881F991FAA
:1023B0001AF0BA95C9F712C0B13081F077D0B1E008
:1023C000089574C0672F782F8827B85F39F0B93F18
:1023D000CCF3869577956795B395D9F73EF49095AC
:1023E0008095709561957F4F8F4F9F4F0895E8942A
:1023F00009C097FB3EF490958095709561957F4F4D
:102400008F4F9F4F9923A9F0F92F96E9BB279395FA
:10241000F695879577956795B795F111F8CFFAF40A
:10242000BB0F11F460FF1BC06F5F7F4F8F4F9F4F3B
:1024300016C0882311F096E911C0772321F09EE899
:10244000872F762F05C0662371F096E8862F70E0FF
:1024500060E02AF09A95660F771F881FDAF7880FD9
:102460009695879597F9089557FD9058440F551FF5
:1024700059F05F3F71F04795880F97FB991F61F006
:102480009F3F79F087950895121613061406551F7D
:10249000F2CF4695F1DF08C0161617061806991FE9
:1024A000F1CF86957105610508940895E894BB27DE
:1024B00066277727CB0197F908950BD078C069D0AC
:1024C00028F06ED018F0952309F05AC05FC011248F
:1024D000EECFCADFA0F3959FD1F3950F50E0551FC3
:1024E000629FF001729FBB27F00DB11D639FAA2769
:1024F000F00DB11DAA1F649F6627B00DA11D661FB8
:10250000829F2227B00DA11D621F739FB00DA11DD8
:10251000621F839FA00D611D221F749F3327A00D92
:10252000611D231F849F600D211D822F762F6A2F2E
:1025300011249F5750408AF0E1F088234AF0EE0FB3
:10254000FF1FBB1F661F771F881F91505040A9F7C0
:102550009E3F510570F014C0AACF5F3FECF3983E48
:10256000DCF3869577956795B795F795E7959F5F27
:10257000C1F7FE2B880F911D9695879597F90895C1
:1025800097F99F6780E870E060E008959FEF80EC26
:10259000089500240A9416161706180609060895C9
:1025A00000240A9412161306140605060895092E2F
:1025B0000394000C11F4882352F0BB0F40F4BF2B9E
:1025C00011F460FF04C06F5F7F4F8F4F9F4F0895DE
:1025D000629FD001739FF001829FE00DF11D649F07
:1025E000E00DF11D929FF00D839FF00D749FF00D93
:1025F000659FF00D9927729FB00DE11DF91F639F34
:10260000B00DE11DF91FBD01CF0111240895A1E214
:102610001A2EAA1BBB1BFD010DC0AA1FBB1FEE1F5C
:10262000FF1FA217B307E407F50720F0A21BB30BA7
:10263000E40BF50B661F771F881F991F1A9469F723
:1026400060957095809590959B01AC01BD01CF017F
:1026500008952F923F924F925F926F927F928F9246
:102660009F92AF92BF92CF92DF92EF92FF920F9321
:102670001F93CF93DF93CDB7DEB7CA1BDB0B0FB62B
:10268000F894DEBF0FBECDBF09942A8839884888E8
:102690005F846E847D848C849B84AA84B984C8847E
:1026A000DF80EE80FD800C811B81AA81B981CE0F75
:1026B000D11D0FB6F894DEBF0FBECDBFED0108955A
:0426C000F894FFCFBC
:1026C40046616E206973204F6666200046616E2065
:1026D4006973204F6E200054656D70657261747566
:1026E40072652000000102020303030304040404CE
:1026F400040404040505050505050505050505058A
:102704000505050506060606060606060606060669
:102714000606060606060606060606060606060655
:102724000606060607070707070707070707070739
:102734000707070707070707070707070707070725
:102744000707070707070707070707070707070715
:102754000707070707070707070707070707070705
:1027640007070707080808080808080808080808E9
:1027740008080808080808080808080808080808D5
:1027840008080808080808080808080808080808C5
:1027940008080808080808080808080808080808B5
:1027A40008080808080808080808080808080808A5
:1027B4000808080808080808080808080808080895
:1027C4000808080808080808080808080808080885
:1027D4000808080808080808080808080808080875
:0427E40008080808D1
:00000001FF
